:03000000021216D3
:0C121600787FE4F6D8FD75813E02125D81
:100CE9002564002D0030302D30300041642D343022
:100CF9000034302D41640034302D34300030300060
:100D0900313500333000343000506C617965722020
:100D1900312057696E7300506C61796572203220F9
:100D290057696E7300496E636F72726563742074DC
:100D39006573742E205061737320636F72726563DB
:100D490074206E756D6265720D0A00253032642D4E
:100D590025303264002A2A2A2A2A2A2A2A2A2A2AD1
:100D69002A2A2A2A2A2A2A2A2A2A2A2A2A0D0A0041
:100D79002A2A2A2A2A2A54454E4E4953204D41549B
:100D890043482A2A2A2A2A2A0D0A005072657373AF
:100D9900203120696620506C617965722031207795
:100DA900696E732074686520706F696E740D0A002E
:100DB9005072657373203220696620506C617965C1
:100DC9007220322077696E732074686520706F69AC
:100DD9006E740D0A0054454E4E4953204D415443FB
:0D0DE900480047414D450053434F5245001F
:04140D00C10DC10C40
:1012A200E4F5A0C282C280C2817F38FE1213891285
:1012B200135B7F067E0012138912135B7F0C7E0084
:1012C20012138912135B7F017E0012138912135BC2
:0712D2007F807E00021389FA
:04135B007F047E008D
:10135F00E4FDFCC3ED9FEC9E5015E4FBFA0BBB00C4
:0F136F00010ABA01F8BB7EF50DBD00010C80E448
:01137E00224C
:1013B5008B148A1589167C277D10120F06EF2430B1
:0313C500020EF421
:0A137F007F01FE1213897F817E00BA
:10138900C280C281D2828FA07F0A7E0012135FC2FF
:021399008222AE
:1013C800D280C281D2828FA07F0A7E0012135FC2B0
:0213D80082226F
:0B12D9007E001213897BFF7A0C79EC79
:1012E4008B2B8A2C892DAB2BAA2CA92D120EDB60FB
:1012F40013052DE52D7002052C14F9120EDBFF12D7
:0513040013C880E22285
:1013DA00758920758DCC759840D28E75A890D29C4F
:0113EA0022E0
:081405008F99300DFDC20D228C
:061309007BFF7A0D792E36
:10130F008B298A2A892BAB29AA2AA92B120EDB60DB
:10131F0013052BE52B7002052A14F9120EDBFF12B1
:05132F00140580E2221C
:0913FB00E4FF300CFDC20CAF99B7
:0114040022C5
:030023000213EBDA
:1013EB00309905C299D20D32309804C298D20C3282
:10139B00E4F50CF50DF50EF50FF508F509F50AF565
:0A13AB000BF510F511F512F51322F1
:10109C00752EFF752F0C7530E98508318509327B6B
:1010AC00007A00792912085C752EFF752F0C7530AB
:1010BC00E9850A31850B327B007A00792A12085CAB
:1010CC00E5112513FFE51035124F70247F85FE12B4
:1010DC0013897B007A0079291212E47F861212D9C7
:1010EC007F877E001213897B007A00792A1212E422
:1010FC00E5112513FFE5103512FEEF64014E702447
:10110C007F89FE1213897B007A0079291212E47F01
:10111C008A1212D97F8B7E001213897B007A007998
:10112C002A1212E4E5112513FFE5103512FEEF64C7
:10113C00024E70247F8DFE1213897B007A00792970
:10114C001212E47F8E1212D97F8F7E001213897BCC
:08115C00007A00792A1212E466
:011164002268
:100B5C00C2027FC77E00121389C3E50D9404E50C15
:100B6C009400500EC3E50F9404E50E94005003025C
:100B7C000C56E50D6404450C7016D3E50F9402E594
:100B8C000E9400500B0509E50970200508020C3C79
:100B9C00E50F6404450E7016D3E50D9402E50C9434
:100BAC0000500B050BE50B7002050A020C3CD3E55B
:100BBC000D950FE50C950E4037E50D950FFFE50CE7
:100BCC00950EFEEF64014E70097BFF7A0C79F412DE
:100BDC0012E4C3E50D950FFFE50C950EFEEF6402D4
:100BEC004E6003020CE60509E50970020508804019
:100BFC00D3E50F950DE50E950C4046E50F950DFFD1
:100C0C00E50E950CFEEF64014E70097BFF7A0C79B2
:100C1C00FA1212E4C3E50F950DFFE50E950CFEEFED
:100C2C0064024E6003020CE6050BE50B7002050A2C
:100C3C007BFF7A0C79EE1212E412109CD202020C99
:100C4C00E67BFF7A0D7900020CE3E50D450C70098B
:100C5C007BFF7A0D79061212E4E50D6401450C70E8
:100C6C00097BFF7A0D79091212E4E50D6402450C3B
:100C7C0070097BFF7A0D790C1212E4E50D640345C3
:100C8C000C70097BFF7A0D790F1212E47FC91212D6
:100C9C00D97FCA7E00121389E50F450E70097BFFC0
:100CAC007A0D79061212E4E50F6401450E70097B8A
:100CBC00FF7A0D79091212E4E50F6402450E7009F2
:100CCC007BFF7A0D790C1212E4E50F6403450E706C
:0C0CDC00097BFF7A0D790F1212E4A202CE
:010CE80022E9
:10116500C3E5099406E5089400500EC3E50B940603
:10117500E50A94005003021215E509640645087056
:101185000BD3E50B9404E50A94004008E5096407D0
:1011950045087011E4F508F509F50AF50B0511E5A3
:1011A5001170020510E50B6406450A700BD3E509BD
:1011B5009404E50894004008E50B6407450A70119E
:1011C500E4F508F509F50AF50B0513E513700205B5
:1011D50012E51164024510700B12137F7BFF7A0D27
:1011E50079128011E51364024512700E12137F7B8C
:1011F500FF7A0D79201212E4800312109CE5096430
:10120500064508700BE50B6406450A7003120DF6DA
:0112150022B6
:100DF600C201E4F523300103020EC91213FB8F234F
:100E0600E52324CE600D047014050DE50D70110563
:100E16000C800D050FE50F7007050E8003121309F0
:100E2600752EFF752F0D753054850C31850D328565
:100E36000E33850F347B007A00792412085C7FC755
:100E46007E001213897B007A0079241212E4C3E52E
:100E56000D9407E50C9400500BC3E50F9407E50EBF
:100E660094004091D3E50D950FE50C950E4020E5D5
:100E76000D950FFFE50C950EFEC3EF9402EE940060
:100E8600400DD2010509E5097002050812109CD330
:100E9600E50F950DE50E950C5003020DFBE50F953C
:100EA6000DFFE50E950CFEC3EF9402EE9400500381
:100EB600020DFBD201050BE50B7002050A12109C10
:100EC600020DFBE4F50CF50DF50EF50F120B5C1299
:050ED600109C021165F3
:100FBE00E4F5221212A21213DA7BFF7A0D795E1279
:100FCE00130F7BFF7A0D797912130F7BFF7A0D7950
:100FDE005E12130F7BFF7A0D799412130F7BFF7A3B
:100FEE000D79B912130F12139B7F017E0012138914
:100FFE007F827E001213897BFF7A0D79DE1212E456
:10100E007FF47E0112135F7F011E1213897F807E93
:10101E00001213897BFF7A0D79EB1212E47FC07EEA
:10102E00001213897BFF7A0D79F01212E4120B5C19
:10103E0012109CC3E5119402E51094005046C3E5CE
:10104E00139402E5129400503B1213FB8F22E522FB
:10105E0024CE600D047014050DE50D7011050C8085
:10106E000D050FE50F7007050E8003121309120B05
:10107E005C92003000BDE4F50CF50DF50EF50F1287
:0E108E00116580AF7F887E1312135F020FF48E
:10122200020FBEE493A3F8E493A34003F68001F215
:1012320008DFF48029E493A3F85407240CC8C333CD
:10124200C4540F4420C8834004F456800146F6DF9C
:10125200E4800B010204081020408090140DE47E0B
:10126200019360BCA3FF543F30E509541FFEE49391
:10127200A360010ECF54C025E060A840B8E493A358
:10128200FAE493A3F8E493A3C8C582C8CAC583CA83
:10129200F0A3C8C582C8CAC583CADFE9DEE780BE3B
:0114110000DA
:100EDB00BB010689828A83E0225002E722BBFE0215
:090EEB00E32289828A83E4932248
:100EF400BB010689828A83F0225002F722BBFE01DD
:020F0400F322D6
:100F0600BC000BBE0029EF8DF084FFADF022E4CCCF
:100F1600F875F008EF2FFFEE33FEEC33FCEE9DEC98
:100F2600984005FCEE9DFE0FD5F0E9E4CEFD22EDDE
:100F3600F8F5F0EE8420D21CFEADF075F008EF2F28
:100F4600FFED33FD4007985006D5F0F222C398FD19
:050F56000FD5F0EA22B6
:10080000E53A242EF8E6053A22782B300A02782EB3
:10081000E475F001120F88020EDB2003EB7F2ED26D
:10082000038018EF540F2490D43440D4FF30070BCA
:10083000EF24BFB41A0050032461FFE53B600215AA
:100840003B053EE53E7002053D300A0D782BE47510
:10085000F001120F88EF020EF40213347403D20A6F
:100860008003E4C20AF53A8B2B8A2C892DE4F53BF0
:10087000F53DF53EE53B60077F2012083B80F575AE
:100880003CFFC204C203C205C206C208C209C20BB1
:10089000120809FF700D300A057F0012084CAF3EA8
:1008A000AE3D22B4255FC2D5C207120809FF24D08D
:1008B000B40A00501A75F00A783B30D50508B6FF27
:1008C0000106C6A426F620D5047002D20680D924DB
:1008D000CFB41A00EF5004C2E5D207020A4CD2048A
:1008E00080C6D20380C0D20580BCD2D580BAD208DF
:1008F00080B47F2012083B2005077401B53B0040FF
:10090000F1120800FF12083B020874D20BD20980D2
:1009100095120800FB120800FA120800F94A4B7001
:1009200006791D7A0B7BFF20052EE53B602A7E00B1
:100930008E82758300120F5B60060EEE653C70F0D0
:10094000C2D5EBC0E0EAC0E0E9C0E0EE120A93D005
:10095000E0F9D0E0FAD0E0FB120EDBFF60AAEBC0BA
:10096000E0EAC0E0E9C0E012083BD0E02401F9D0A1
:10097000E03400FAD0E0FBE53C0460DCD53CD980F3
:10098000877BFF7A0A798FD205809C791080027963
:1009900008C209C20B8008D2D5790A8004790AC23C
:1009A000D5E53C047002F53CE4FAFDFEFF120800B8
:1009B000FC7B08200413120800FD7B1030030A1290
:1009C0000800FE120800FF7B20EC3382D592D55040
:1009D00013C3E43003069FFFE49EFEE42004039D5E
:1009E000FDE49CFCE4CBF8C204EC700CCFCECDCC83
:1009F000E824F8F870F38017C3EF33FFEE33FEED11
:100A000033FDEC33FCEB33FB994002FB0FD8E9EBF1
:100A1000300405F8D0E0C448B204C0E00AEC4D4E02
:100A20004F78207B0070C2EAB53C0040BCC0E012A9
:100A30000A95D0F0D0E0200404C4C0E0C4B204C0E1
:100A4000F0120824D0F0D5F0EB020874120F9809C8
:100A50001153098B5808E24C08DE42098F4F099761
:0F0A60004409974908F743099D550981460981C3
:100A6F00450981470B3D5008E62D08EA2E090D2B4D
:100A7F0008EE23090B200B262A08A64800000905BB
:100A8F003F3F3F00790AA2D5200614300809B9105C
:100A9F00020404B9080104A2D52009025001042060
:100AAF0005689205B53B005034C0E07F2030061931
:100ABF007F30A20572097208500F120AECC205C2EC
:100ACF0009C208C20B7F30800F300803E9C0E01263
:100ADF00083B300803D0E0F9D0E0B53BCC30081725
:100AEF007F30B9100C12083B7F583007077F788092
:100AFF0003B9080312083B3005057F2D02083B7F21
:100B0F0020200BF87F2B2009F322920580CF286E2F
:100B1F00756C6C2900D2041208003004F8C20478F6
:100B2F003B30D50108F60208A62D5043495812084C
:100B3F00002403B405004001E4900B389312082CF5
:0D0B4F00743A12082CD206753B0402098B83
:100F5B00BB010CE58229F582E5833AF583E022504B
:100F6B0006E92582F8E622BBFE06E92582F8E22295
:0D0F7B00E58229F582E5833AF583E49322AF
:100F8800FAE6FB0808E6F925F0F618E6CA3AF6226A
:100F9800D083D082F8E4937012740193700DA3A3E8
:100FA80093F8740193F5828883E4737402936860FC
:060FB800EFA3A3A380DFFC
:10133400EFB40A07740D12133F740A309811A89978
:10134400B8130CC2983098FDA899C298B811F63019
:0713540099FDC299F59922F1
:00000001FF
