:03000000020EC528
:0C0EC500787FE4F6D8FD758166020CE031
:100DDA002530325820253032582530325800546F89
:100DEA0067676C6520535731007768656E204C45FC
:100DFA004420676C6F7773005265616374696F6E24
:060E0A002054696D650033
:070E1000120EA17F047E0019
:100E1700E4FDFCC3ED9FEC9E5015E4FBFA0BBB0011
:0F0E2700010ABA01F8BB3EF50DBD00010C80E4D5
:010E36002299
:100EA100C280C281D2828FA07F0A7E00120E17C239
:020EB10082229B
:100EB300D280C281D2828FA07F0A7E00120E17C217
:020EC300822289
:100E5E008B538A548955AB53AA54A955120C526020
:100E6E00130555E5557002055414F9120C52FF1274
:050E7E000EB380E2222A
:100E8300C0D075D0187F387E00120E107F06120E68
:0E0E9300107F0C120E107F01120E10D0D02214
:100CE00078227C007D007BFF7A0D79E87E007F0B07
:100CF000120C2C782D7C007D007BFF7A0D79F37E21
:100D0000007F0F120C2C783C7C007D007BFF7A0E5C
:100D100079027E007F0E120C2CE4F551F552758994
:100D200001F58AF58CF590D2902090FD120E837F0C
:100D3000837E00120EA17B007A007922120E5E7F64
:100D4000C17E00120EA17B007A00792D120E5E7F0B
:100D5000D07E07120E17D294758901E4F58AF58CBE
:100D6000D28C20900F308DFA0552E5527002055159
:100D7000C28D80EEC28CC294120E837F817E0012DF
:100D80000EA17B007A00793C120E5E7FC37E0012BA
:100D90000EA17556FF75570D7558DA855159855254
:100DA0005AE58A755B00F55CE58C755D00F55E7B48
:100DB000007A00794A12085C7B007A00794A120EA8
:100DC0005E7F887E13120E17E4F551F552120E83E2
:0A0DD000E4F58AF58CC28D020D27B0
:100B5C00E709F608DFFA8046E709F208DFFA803E7B
:100B6C0088828C83E709F0A3DFFA8032E309F60868
:100B7C00DFFA8078E309F208DFFA807088828C83D0
:100B8C00E309F0A3DFFA806489828A83E0A3F60884
:100B9C00DFFA805889828A83E0A3F208DFFA804C5E
:100BAC0080D280FA80C680D4806980F28033801035
:100BBC0080A680EA809A80A880DA80E280CA80339E
:100BCC0089828A83ECFAE493A3C8C582C8CCC58316
:100BDC00CCF0A3C8C582C8CCC583CCDFE9DEE780E6
:100BEC000D89828A83E493A3F608DFF9ECFAA9F065
:100BFC00EDFB2289828A83ECFAE0A3C8C582C8CCBB
:100C0C00C583CCF0A3C8C582C8CCC583CCDFEADED3
:100C1C00E880DB89828A83E493A3F208DFF980CC35
:100C2C0088F0EF60010E4E60C388F0ED2402B4042E
:100C3C000050B9F582EB2402B4040050AF232345D5
:060C4C008223900BAC7343
:100C5200BB010689828A83E0225002E722BBFE02A0
:090C6200E32289828A83E49322D3
:10080000E5622456F8E605622278533007027856EE
:10081000E475F001120CAA020C522000EB7F2ED2DC
:10082000008018EF540F2490D43440D4FF30040BD0
:10083000EF24BFB41A0050032461FFE56360021582
:10084000630566E5667002056530070D7853E4754B
:10085000F001120CAAEF020C98020E377403D207B3
:100860008003E4C207F5628B538A548955E4F5632B
:10087000F565F566E56360077F2012083B80F57536
:1008800064FFC201C200C202C203C205C206C2089E
:10089000120809FF700D3007057F0012084CAF6683
:1008A000AE6522B4255FC2D5C204120809FF24D068
:1008B000B40A00501A75F00A786330D50508B6FFFF
:1008C0000106C6A426F620D5047002D20380D924DE
:1008D000CFB41A00EF5004C2E5D204020A4CD20190
:1008E00080C6D20080C0D20280BCD2D580BAD205E8
:1008F00080B47F2012083B2002077401B5630040DA
:10090000F1120800FF12083B020874D208D20680D8
:1009100095120800FB120800FA120800F94A4B7001
:1009200006791D7A0B7BFF20022EE563602A7E008C
:100930008E82758300120C6B60060EEE656470F09B
:10094000C2D5EBC0E0EAC0E0E9C0E0EE120A93D005
:10095000E0F9D0E0FAD0E0FB120C52FF60AAEBC045
:10096000E0EAC0E0E9C0E012083BD0E02401F9D0A1
:10097000E03400FAD0E0FBE5640460DCD564D980A3
:10098000877BFF7A0A798FD202809C791080027966
:1009900008C206C2088008D2D5790A8004790AC242
:1009A000D5E564047002F564E4FAFDFEFF12080068
:1009B000FC7B08200113120800FD7B1030000A1296
:1009C0000800FE120800FF7B20EC3382D592D55040
:1009D00013C3E43000069FFFE49EFEE42001039D64
:1009E000FDE49CFCE4CBF8C201EC700CCFCECDCC86
:1009F000E824F8F870F38017C3EF33FFEE33FEED11
:100A000033FDEC33FCEB33FB994002FB0FD8E9EBF1
:100A1000300105F8D0E0C448B201C0E00AEC4D4E08
:100A20004F78207B0070C2EAB5640040BCC0E01281
:100A30000A95D0F0D0E0200104C4C0E0C4B201C0E7
:100A4000F0120824D0F0D5F0EB020874120CBA09A9
:100A50001153098B5808E24C08DE42098F4F099761
:0F0A60004409974908F743099D550981460981C3
:100A6F00450981470B3D5008E62D08EA2E090D2B4D
:100A7F0008EE23090B200B262A08A64800000905BB
:100A8F003F3F3F00790AA2D5200314300509B91062
:100A9F00020404B9080104A2D52006025001042063
:100AAF0002689202B563005034C0E07F2030031912
:100ABF007F30A20272067205500F120AECC202C2F8
:100ACF0006C205C2087F30800F300503E9C0E0126F
:100ADF00083B300503D0E0F9D0E0B563CC30051703
:100AEF007F30B9100C12083B7F583004077F788095
:100AFF0003B9080312083B3002057F2D02083B7F24
:100B0F00202008F87F2B2006F322920280CF286E38
:100B1F00756C6C2900D2011208003001F8C20178FF
:100B2F006330D50108F60208A62D50434958120824
:100B3F00002403B405004001E4900B389312082CF5
:0D0B4F00743A12082CD20375630402098B5E
:100C6B00BB010CE58229F582E5833AF583E022503E
:100C7B0006E92582F8E622BBFE06E92582F8E22288
:0D0C8B00E58229F582E5833AF583E49322A2
:100C9800BB010689828A83F0225002F722BBFE013B
:020CA800F32235
:100CAA00FAE6FB0808E6F925F0F618E6CA3AF6224B
:100CBA00D083D082F8E4937012740193700DA3A3C9
:100CCA0093F8740193F5828883E4737402936860DD
:060CDA00EFA3A3A380DFDD
:100E3700EFB40A07740D120E42740A309811A8997C
:100E4700B8130CC2983098FDA899C298B811F6301B
:070E570099FDC299F59922F3
:00000001FF
