:03000000020100FA
:100100007570AB7571CD79C378505100E570540F9F
:10011000FCE57054F003030303FDE571540FFEE5A5
:100120007154F003030303FF7A0A7100DAFCB10093
:100130007A0A7100DAFC8CB07482B13D71009005CE
:100140006BB15D7100ECFB91007A287100DAFC74F0
:1001500001B13D71008DB07482B13D7100900576A2
:10016000B15D7100EDFB91007A287100DAFC740139
:10017000B13D71008EB07482B13D7100900581B1C6
:100180005D7100EEFB91007A287100DAFC7401B118
:100190003D71008FB07482B13D710090058CB15DEE
:1001A0007100EFFB91007A287100DAFC7401B13D17
:0501B0007100020136A0
:0D020000E9F4F9E8F42401F8E93400F922EA
:10030000758901888A898CD28C308DFDC28CC28D12
:030310002280FE4A
:1004000074C4B13D7100EB03030354012430B14CBB
:100410007100EB030354012430B14C7100EB035421
:10042000012430B14C7100EB54012430B14C710007
:0104300022A9
:1005000075A038C280C281D2827100C2827100752A
:10051000A00CC280C281D2827100C282710075A01B
:1005200001C280C281D2827100C282710075A006B0
:10053000C280C281D2827100C282710022F5A0C243
:1005400080C281D2827100C282710022F5A0D28065
:10055000C281D2827100C2827100710022C0E0E4C7
:10056000936005B14CA380F7D0E02220204C657643
:10057000656C2031200020204C6576656C2032208F
:100580000020204C6576656C2033200020204C65CF
:0705900076656C20342000A9
:00000001FF
