:03000000021237B2
:0C123700787FE4F6D8FD75813E02127E3F
:100D0A002564002D0030302D30300034302D343041
:100D1A000041642D34300034302D416400303000FD
:100D2A00313500333000343000506C6179657220FF
:100D3A00312057696E7300506C61796572203220D8
:100D4A0057696E7300496E636F72726563742074BB
:100D5A006573742E205061737320636F72726563BA
:100D6A0074206E756D6265720D0A00253032642D2D
:100D7A0025303264002A2A2A2A2A2A2A2A2A2A2AB0
:100D8A002A2A2A2A2A2A2A2A2A2A2A2A2A0D0A0020
:100D9A002A2A2A2A2A2A54454E4E4953204D41547A
:100DAA0043482A2A2A2A2A2A0D0A0050726573738E
:100DBA00203120696620506C617965722031207774
:100DCA00696E732074686520706F696E740D0A000D
:100DDA005072657373203220696620506C617965A0
:100DEA007220322077696E732074686520706F698B
:100DFA006E740D0A0054454E4E4953204D415443DA
:0D0E0A00480047414D450053434F524500FD
:04142E00C10DC10C1F
:1012C300E4F5A0C282C280C2817F38FE1213AA1243
:1012D300137C7F067E001213AA12137C7F0C7E0000
:1012E3001213AA12137C7F017E001213AA12137C1D
:0712F3007F807E000213AAB8
:04137C007F047E006C
:10138000E4FDFCC3ED9FEC9E5015E4FBFA0BBB00A3
:0F139000010ABA01F8BB7EF50DBD00010C80E427
:01139F00222B
:1013D6008B148A1589167C277D10120F27EF24306F
:0313E600020F15DE
:0A13A0007F01FE1213AA7F817E0078
:1013AA00C280C281D2828FA07F0A7E00121380C2BD
:0213BA0082228D
:1013E900D280C281D2828FA07F0A7E00121380C26E
:0213F90082224E
:0B12FA007E001213AA7BFF7A0D790D15
:101305008B2B8A2C892DAB2BAA2CA92D120EFC60B8
:1013150013052DE52D7002052C14F9120EFCFF1294
:0513250013E980E22243
:1013FB00758920758DCC759840D28E75A890D29C2E
:01140B0022BE
:081426008F99300DFDC20D226B
:06132A007BFF7A0D794FF4
:101330008B298A2A892BAB29AA2AA92B120EFC6099
:1013400013052BE52B7002052A14F9120EFCFF126F
:05135000142680E222DA
:09141C00E4FF300CFDC20CAF9995
:0114250022A4
:0300230002140CB8
:10140C00309905C299D20D32309804C298D20C3260
:1013BC00E4F50CF50DF50EF50FF508F509F50AF544
:0A13CC000BF510F511F512F51322D0
:1010BD00752EFF752F0D75300A8508318509327B28
:1010CD00007A00792912085C752EFF752F0D753089
:1010DD000A850A31850B327B007A00792A12085C69
:1010ED00E5112513FFE51035124F70247F85FE1293
:1010FD0013AA7B007A0079291213057F861212FA42
:10110D007F877E001213AA7B007A00792A121305BD
:10111D00E5112513FFE5103512FEEF64014E702425
:10112D007F89FE1213AA7B007A0079291213057F9D
:10113D008A1212FA7F8B7E001213AA7B007A007935
:10114D002A121305E5112513FFE5103512FEEF6484
:10115D00024E70247F8DFE1213AA7B007A0079292E
:10116D001213057F8E1212FA7F8F7E001213AA7B47
:08117D00007A00792A12130523
:011185002247
:100B5C00C2027FC77E001213AAC3E50D9404E50CF4
:100B6C009400500EC3E50F9404E50E94005003025C
:100B7C000C77E50D6404450C7021D3E50F9402E568
:100B8C000E940050160509E509700205087BFF7AE2
:100B9C000D790F1213051210BDD202E50F64044536
:100BAC000E7016D3E50D9402E50C9400500B050B5A
:100BBC00E50B705B050A020C5DD3E50D950FE50C9A
:100BCC00950E404DE50D950FFFE50C950E4F7009F8
:100BDC007BFF7A0D7915121305C3E50D950FFFE513
:100BEC000C950EFEEF64014E70097BFF7A0D791B9C
:100BFC00121305C3E50D950FFFE50C950EFEEF6482
:100C0C00024E6003020D070509E509700205088014
:100C1C0040D3E50F950DE50E950C4046E50F950D6F
:100C2C00FFE50E950CFEEF64014E70097BFF7A0D0B
:100C3C007921121305C3E50F950DFFE50E950CFEFA
:100C4C00EF64024E6003020D07050BE50B70020505
:100C5C000A7BFF7A0D790F1213051210BDD2020216
:100C6C000D077BFF7A0D7915020D04E50D450C700F
:100C7C00097BFF7A0D7927121305E50D6401450CEC
:100C8C0070097BFF7A0D792A121305E50D64024574
:100C9C000C70097BFF7A0D792D121305E50D640399
:100CAC00450C70097BFF7A0D79301213057FC91240
:100CBC0012FA7FCA7E001213AAE50F450E70097B4B
:100CCC00FF7A0D7927121305E50F6401450E7009A3
:100CDC007BFF7A0D792A121305E50F6402450E701D
:100CEC00097BFF7A0D792D121305E50F6403450E70
:0D0CFC0070097BFF7A0D7930121305A202FA
:010D090022C7
:10118600C3E5099406E5089400500EC3E50B9406E2
:10119600E50A94005003021236E509640645087014
:1011A6000BD3E50B9404E50A94004008E5096407AF
:1011B60045087011E4F508F509F50AF50B0511E582
:1011C6001170020510E50B6406450A700BD3E5099C
:1011D6009404E50894004008E50B6407450A70117D
:1011E600E4F508F509F50AF50B0513E51370020594
:1011F60012E51164024510700B1213A07BFF7A0DE5
:1012060079338011E51364024512700E1213A07B28
:10121600FF7A0D794112130580031210BDE50964AA
:10122600064508700BE50B6406450A7003120E1797
:011236002295
:100E1700C201E4F523300103020EEA12141C8F23EA
:100E2700E52324CE600D047014050DE50D70110542
:100E37000C800D050FE50F7007050E800312132AAE
:100E4700752EFF752F0D753075850C31850D328523
:100E57000E33850F347B007A00792412085C7FC734
:100E67007E001213AA7B007A007924121305C3E5CA
:100E77000D9407E50C9400500BC3E50F9407E50E9E
:100E870094004091D3E50D950FE50C950E4020E5B4
:100E97000D950FFFE50C950EFEC3EF9402EE94003F
:100EA700400DD2010509E509700205081210BDD3EE
:100EB700E50F950DE50E950C5003020E1CE50F95F9
:100EC7000DFFE50E950CFEC3EF9402EE9400500360
:100ED700020E1CD201050BE50B7002050A1210BDAC
:100EE700020E1CE4F50CF50DF50EF50F120B5C1256
:050EF70010BD02118690
:100FDF00E4F5221212C31213FB7BFF7A0D797F12F5
:100FEF0013307BFF7A0D799A1213307BFF7A0D79CC
:100FFF007F1213307BFF7A0D79B51213307BFF7A96
:10100F000D79DA1213301213BC7F017E001213AA6E
:10101F007F827E001213AA7BFF7A0D79FF121305D0
:10102F007FF47E011213807F011E1213AA7F807E30
:10103F00001213AA7BFF7A0E790C1213057FC07E64
:10104F00001213AA7BFF7A0E7911121305120B5C93
:10105F001210BDC3E5119402E51094005046C3E58C
:10106F00139402E5129400503B12141C8F22E522B8
:10107F0024CE600D047014050DE50D7011050C8064
:10108F000D050FE50F7007050E800312132A120BC3
:10109F005C92003000BDE4F50CF50DF50EF50F1266
:0E10AF00118680AF7F887E1312138002101509
:10124300020FDFE493A3F8E493A34003F68001F2D3
:1012530008DFF48029E493A3F85407240CC8C333AC
:10126300C4540F4420C8834004F456800146F6DF7B
:10127300E4800B010204081020408090142EE47EC9
:10128300019360BCA3FF543F30E509541FFEE49370
:10129300A360010ECF54C025E060A840B8E493A337
:1012A300FAE493A3F8E493A3C8C582C8CAC583CA62
:1012B300F0A3C8C582C8CAC583CADFE9DEE780BE1A
:0114320000B9
:100EFC00BB010689828A83E0225002E722BBFE02F4
:090F0C00E32289828A83E4932226
:100F1500BB010689828A83F0225002F722BBFE01BB
:020F2500F322B5
:100F2700BC000BBE0029EF8DF084FFADF022E4CCAE
:100F3700F875F008EF2FFFEE33FEEC33FCEE9DEC77
:100F4700984005FCEE9DFE0FD5F0E9E4CEFD22EDBD
:100F5700F8F5F0EE8420D21CFEADF075F008EF2F07
:100F6700FFED33FD4007985006D5F0F222C398FDF8
:050F77000FD5F0EA2295
:10080000E53A242EF8E6053A22782B300A02782EB3
:10081000E475F001120FA9020EFC2003EB7F2ED22B
:10082000038018EF540F2490D43440D4FF30070BCA
:10083000EF24BFB41A0050032461FFE53B600215AA
:100840003B053EE53E7002053D300A0D782BE47510
:10085000F001120FA9EF020F150213557403D20A0B
:100860008003E4C20AF53A8B2B8A2C892DE4F53BF0
:10087000F53DF53EE53B60077F2012083B80F575AE
:100880003CFFC204C203C205C206C208C209C20BB1
:10089000120809FF700D300A057F0012084CAF3EA8
:1008A000AE3D22B4255FC2D5C207120809FF24D08D
:1008B000B40A00501A75F00A783B30D50508B6FF27
:1008C0000106C6A426F620D5047002D20680D924DB
:1008D000CFB41A00EF5004C2E5D207020A4CD2048A
:1008E00080C6D20380C0D20580BCD2D580BAD208DF
:1008F00080B47F2012083B2005077401B53B0040FF
:10090000F1120800FF12083B020874D20BD20980D2
:1009100095120800FB120800FA120800F94A4B7001
:1009200006791D7A0B7BFF20052EE53B602A7E00B1
:100930008E82758300120F7C60060EEE653C70F0AF
:10094000C2D5EBC0E0EAC0E0E9C0E0EE120A93D005
:10095000E0F9D0E0FAD0E0FB120EFCFF60AAEBC099
:10096000E0EAC0E0E9C0E012083BD0E02401F9D0A1
:10097000E03400FAD0E0FBE53C0460DCD53CD980F3
:10098000877BFF7A0A798FD205809C791080027963
:1009900008C209C20B8008D2D5790A8004790AC23C
:1009A000D5E53C047002F53CE4FAFDFEFF120800B8
:1009B000FC7B08200413120800FD7B1030030A1290
:1009C0000800FE120800FF7B20EC3382D592D55040
:1009D00013C3E43003069FFFE49EFEE42004039D5E
:1009E000FDE49CFCE4CBF8C204EC700CCFCECDCC83
:1009F000E824F8F870F38017C3EF33FFEE33FEED11
:100A000033FDEC33FCEB33FB994002FB0FD8E9EBF1
:100A1000300405F8D0E0C448B204C0E00AEC4D4E02
:100A20004F78207B0070C2EAB53C0040BCC0E012A9
:100A30000A95D0F0D0E0200404C4C0E0C4B204C0E1
:100A4000F0120824D0F0D5F0EB020874120FB909A7
:100A50001153098B5808E24C08DE42098F4F099761
:0F0A60004409974908F743099D550981460981C3
:100A6F00450981470B3D5008E62D08EA2E090D2B4D
:100A7F0008EE23090B200B262A08A64800000905BB
:100A8F003F3F3F00790AA2D5200614300809B9105C
:100A9F00020404B9080104A2D52009025001042060
:100AAF0005689205B53B005034C0E07F2030061931
:100ABF007F30A20572097208500F120AECC205C2EC
:100ACF0009C208C20B7F30800F300803E9C0E01263
:100ADF00083B300803D0E0F9D0E0B53BCC30081725
:100AEF007F30B9100C12083B7F583007077F788092
:100AFF0003B9080312083B3005057F2D02083B7F21
:100B0F0020200BF87F2B2009F322920580CF286E2F
:100B1F00756C6C2900D2041208003004F8C20478F6
:100B2F003B30D50108F60208A62D5043495812084C
:100B3F00002403B405004001E4900B389312082CF5
:0D0B4F00743A12082CD206753B0402098B83
:100F7C00BB010CE58229F582E5833AF583E022502A
:100F8C0006E92582F8E622BBFE06E92582F8E22274
:0D0F9C00E58229F582E5833AF583E493228E
:100FA900FAE6FB0808E6F925F0F618E6CA3AF62249
:100FB900D083D082F8E4937012740193700DA3A3C7
:100FC90093F8740193F5828883E4737402936860DB
:060FD900EFA3A3A380DFDB
:10135500EFB40A07740D121360740A309811A89936
:10136500B8130CC2983098FDA899C298B811F630F8
:0713750099FDC299F59922D0
:00000001FF
