:03000000021221C8
:0C122100787FE4F6D8FD75813E0212686B
:100CF4002564002D0030302D30300041642D343017
:100D04000034302D41640034302D34300030300054
:100D1400313500333000343000506C617965722015
:100D2400312057696E7300506C61796572203220EE
:100D340057696E7300496E636F72726563742074D1
:100D44006573742E205061737320636F72726563D0
:100D540074206E756D6265720D0A00253032642D43
:100D640025303264002A2A2A2A2A2A2A2A2A2A2AC6
:100D74002A2A2A2A2A2A2A2A2A2A2A2A2A0D0A0036
:100D84002A2A2A2A2A2A54454E4E4953204D415490
:100D940043482A2A2A2A2A2A0D0A005072657373A4
:100DA400203120696620506C61796572203120778A
:100DB400696E732074686520706F696E740D0A0023
:100DC4005072657373203220696620506C617965B6
:100DD4007220322077696E732074686520706F69A1
:100DE4006E740D0A0054454E4E4953204D415443F0
:0D0DF400480047414D450053434F52450014
:04141800C10DC10C35
:1012AD00E4F5A0C282C280C2817F38FE121394126F
:1012BD0013667F067E001213941213667F0C7E0058
:1012CD001213941213667F017E001213941213668B
:0712DD007F807E00021394E4
:041366007F047E0082
:10136A00E4FDFCC3ED9FEC9E5015E4FBFA0BBB00B9
:0F137A00010ABA01F8BB7EF50DBD00010C80E43D
:011389002241
:1013C0008B148A1589167C277D10120F11EF24309B
:0313D000020EFF0B
:0A138A007F01FE1213947F817E00A4
:10139400C280C281D2828FA07F0A7E0012136AC2E9
:0213A4008222A3
:1013D300D280C281D2828FA07F0A7E0012136AC29A
:0213E300822264
:0B12E4007E001213947BFF7A0C79F758
:1012EF008B2B8A2C892DAB2BAA2CA92D120EE660E5
:1012FF0013052DE52D7002052C14F9120EE6FF12C1
:05130F0013D380E2226F
:1013E500758920758DCC759840D28E75A890D29C44
:0113F50022D5
:081410008F99300DFDC20D2281
:061314007BFF7A0D793920
:10131A008B298A2A892BAB29AA2AA92B120EE660C5
:10132A0013052BE52B7002052A14F9120EE6FF129B
:05133A00141080E22206
:09140600E4FF300CFDC20CAF99AB
:01140F0022BA
:030023000213F6CF
:1013F600309905C299D20D32309804C298D20C3277
:1013A600E4F50CF50DF50EF50FF508F509F50AF55A
:0A13B6000BF510F511F512F51322E6
:1010A700752EFF752F0C7530F48508318509327B55
:1010B700007A00792912085C752EFF752F0C7530A0
:1010C700F4850A31850B327B007A00792A12085C95
:1010D700E5112513FFE51035124F70247F85FE12A9
:1010E70013947B007A0079291212EF7F861212E49B
:1010F7007F877E001213947B007A00792A1212EF01
:10110700E5112513FFE5103512FEEF64014E70243B
:101117007F89FE1213947B007A0079291212EF7FE0
:101127008A1212E47F8B7E001213947B007A007977
:101137002A1212EFE5112513FFE5103512FEEF64B1
:10114700024E70247F8DFE1213947B007A0079295A
:101157001212EF7F8E1212E47F8F7E001213947BA0
:08116700007A00792A1212EF50
:01116F00225D
:100B5C00C2027FC77E00121394C3E50D9404E50C0A
:100B6C009400500EC3E50F9404E50E94005003025C
:100B7C000C61E50D6404450C7021D3E50F9402E57E
:100B8C000E940050160509E509700205087BFF7AE2
:100B9C000C79F91212EF1210A7D202E50F6404457A
:100BAC000E7016D3E50D9402E50C9400500B050B5A
:100BBC00E50B7045050A020C47D3E50D950FE50CC6
:100BCC00950E4037E50D950FFFE50C950EFEEF6485
:100BDC00014E70097BFF7A0C79FF1212EFC3E50D01
:100BEC00950FFFE50C950EFEEF64024E6003020CB0
:100BFC00F10509E509700205088040D3E50F950D54
:100C0C00E50E950C4046E50F950DFFE50E950CFE97
:100C1C00EF64014E70097BFF7A0D79051212EFC358
:100C2C00E50F950DFFE50E950CFEEF64024E60038B
:100C3C00020CF1050BE50B7002050A7BFF7A0C79AF
:100C4C00F91212EF1210A7D202020CF17BFF7A0DEF
:100C5C00790B020CEEE50D450C70097BFF7A0D79D2
:100C6C00111212EFE50D6401450C70097BFF7A0D32
:100C7C0079141212EFE50D6402450C70097BFF7AB2
:100C8C000D79171212EFE50D6403450C70097BFF0B
:100C9C007A0D791A1212EF7FC91212E47FCA7E0004
:100CAC00121394E50F450E70097BFF7A0D79111222
:100CBC0012EFE50F6401450E70097BFF7A0D791474
:100CCC001212EFE50F6402450E70097BFF7A0D7965
:100CDC00171212EFE50F6403450E70097BFF7A0DB6
:070CEC00791A1212EFA202B7
:010CF30022DE
:10117000C3E5099406E5089400500EC3E50B9406F8
:10118000E50A94005003021220E509640645087040
:101190000BD3E50B9404E50A94004008E5096407C5
:1011A00045087011E4F508F509F50AF50B0511E598
:1011B0001170020510E50B6406450A700BD3E509B2
:1011C0009404E50894004008E50B6407450A701193
:1011D000E4F508F509F50AF50B0513E513700205AA
:1011E00012E51164024510700B12138A7BFF7A0D11
:1011F000791D8011E51364024512700E12138A7B6B
:10120000FF7A0D792B1212EF80031210A7E5096403
:10121000064508700BE50B6406450A7003120E01C3
:0112200022AB
:100E0100C201E4F523300103020ED41214068F232C
:100E1100E52324CE600D047014050DE50D70110558
:100E21000C800D050FE50F7007050E8003121314DA
:100E3100752EFF752F0D75305F850C31850D32854F
:100E41000E33850F347B007A00792412085C7FC74A
:100E51007E001213947B007A0079241212EFC3E50D
:100E61000D9407E50C9400500BC3E50F9407E50EB4
:100E710094004091D3E50D950FE50C950E4020E5CA
:100E81000D950FFFE50C950EFEC3EF9402EE940055
:100E9100400DD2010509E509700205081210A7D31A
:100EA100E50F950DE50E950C5003020E06E50F9525
:100EB1000DFFE50E950CFEC3EF9402EE9400500376
:100EC100020E06D201050BE50B7002050A1210A7EE
:100ED100020E06E4F50CF50DF50EF50F120B5C1282
:050EE10010A7021170D2
:100FC900E4F5221212AD1213E57BFF7A0D7969124D
:100FD900131A7BFF7A0D798412131A7BFF7A0D7924
:100FE9006912131A7BFF7A0D799F12131A7BFF7A04
:100FF9000D79C412131A1213A67F017E00121394DD
:101009007F827E001213947BFF7A0D79E91212EF29
:101019007FF47E0112136A7F011E1213947F807E72
:10102900001213947BFF7A0D79F61212EF7FC07EBE
:10103900001213947BFF7A0D79FB1212EF120B5CED
:101049001210A7C3E5119402E51094005046C3E5B8
:10105900139402E5129400503B1214068F22E522E4
:1010690024CE600D047014050DE50D7011050C807A
:101079000D050FE50F7007050E8003121314120BEF
:101089005C92003000BDE4F50CF50DF50EF50F127C
:0E109900117080AF7F887E1312136A020FFF62
:10122D00020FC9E493A3F8E493A34003F68001F2FF
:10123D0008DFF48029E493A3F85407240CC8C333C2
:10124D00C4540F4420C8834004F456800146F6DF91
:10125D00E4800B0102040810204080901418E47EF5
:10126D00019360BCA3FF543F30E509541FFEE49386
:10127D00A360010ECF54C025E060A840B8E493A34D
:10128D00FAE493A3F8E493A3C8C582C8CAC583CA78
:10129D00F0A3C8C582C8CAC583CADFE9DEE780BE30
:01141C0000CF
:100EE600BB010689828A83E0225002E722BBFE020A
:090EF600E32289828A83E493223D
:100EFF00BB010689828A83F0225002F722BBFE01D2
:020F0F00F322CB
:100F1100BC000BBE0029EF8DF084FFADF022E4CCC4
:100F2100F875F008EF2FFFEE33FEEC33FCEE9DEC8D
:100F3100984005FCEE9DFE0FD5F0E9E4CEFD22EDD3
:100F4100F8F5F0EE8420D21CFEADF075F008EF2F1D
:100F5100FFED33FD4007985006D5F0F222C398FD0E
:050F61000FD5F0EA22AB
:10080000E53A242EF8E6053A22782B300A02782EB3
:10081000E475F001120F93020EE62003EB7F2ED257
:10082000038018EF540F2490D43440D4FF30070BCA
:10083000EF24BFB41A0050032461FFE53B600215AA
:100840003B053EE53E7002053D300A0D782BE47510
:10085000F001120F93EF020EFF02133F7403D20A4E
:100860008003E4C20AF53A8B2B8A2C892DE4F53BF0
:10087000F53DF53EE53B60077F2012083B80F575AE
:100880003CFFC204C203C205C206C208C209C20BB1
:10089000120809FF700D300A057F0012084CAF3EA8
:1008A000AE3D22B4255FC2D5C207120809FF24D08D
:1008B000B40A00501A75F00A783B30D50508B6FF27
:1008C0000106C6A426F620D5047002D20680D924DB
:1008D000CFB41A00EF5004C2E5D207020A4CD2048A
:1008E00080C6D20380C0D20580BCD2D580BAD208DF
:1008F00080B47F2012083B2005077401B53B0040FF
:10090000F1120800FF12083B020874D20BD20980D2
:1009100095120800FB120800FA120800F94A4B7001
:1009200006791D7A0B7BFF20052EE53B602A7E00B1
:100930008E82758300120F6660060EEE653C70F0C5
:10094000C2D5EBC0E0EAC0E0E9C0E0EE120A93D005
:10095000E0F9D0E0FAD0E0FB120EE6FF60AAEBC0AF
:10096000E0EAC0E0E9C0E012083BD0E02401F9D0A1
:10097000E03400FAD0E0FBE53C0460DCD53CD980F3
:10098000877BFF7A0A798FD205809C791080027963
:1009900008C209C20B8008D2D5790A8004790AC23C
:1009A000D5E53C047002F53CE4FAFDFEFF120800B8
:1009B000FC7B08200413120800FD7B1030030A1290
:1009C0000800FE120800FF7B20EC3382D592D55040
:1009D00013C3E43003069FFFE49EFEE42004039D5E
:1009E000FDE49CFCE4CBF8C204EC700CCFCECDCC83
:1009F000E824F8F870F38017C3EF33FFEE33FEED11
:100A000033FDEC33FCEB33FB994002FB0FD8E9EBF1
:100A1000300405F8D0E0C448B204C0E00AEC4D4E02
:100A20004F78207B0070C2EAB53C0040BCC0E012A9
:100A30000A95D0F0D0E0200404C4C0E0C4B204C0E1
:100A4000F0120824D0F0D5F0EB020874120FA309BD
:100A50001153098B5808E24C08DE42098F4F099761
:0F0A60004409974908F743099D550981460981C3
:100A6F00450981470B3D5008E62D08EA2E090D2B4D
:100A7F0008EE23090B200B262A08A64800000905BB
:100A8F003F3F3F00790AA2D5200614300809B9105C
:100A9F00020404B9080104A2D52009025001042060
:100AAF0005689205B53B005034C0E07F2030061931
:100ABF007F30A20572097208500F120AECC205C2EC
:100ACF0009C208C20B7F30800F300803E9C0E01263
:100ADF00083B300803D0E0F9D0E0B53BCC30081725
:100AEF007F30B9100C12083B7F583007077F788092
:100AFF0003B9080312083B3005057F2D02083B7F21
:100B0F0020200BF87F2B2009F322920580CF286E2F
:100B1F00756C6C2900D2041208003004F8C20478F6
:100B2F003B30D50108F60208A62D5043495812084C
:100B3F00002403B405004001E4900B389312082CF5
:0D0B4F00743A12082CD206753B0402098B83
:100F6600BB010CE58229F582E5833AF583E0225040
:100F760006E92582F8E622BBFE06E92582F8E2228A
:0D0F8600E58229F582E5833AF583E49322A4
:100F9300FAE6FB0808E6F925F0F618E6CA3AF6225F
:100FA300D083D082F8E4937012740193700DA3A3DD
:100FB30093F8740193F5828883E4737402936860F1
:060FC300EFA3A3A380DFF1
:10133F00EFB40A07740D12134A740A309811A89962
:10134F00B8130CC2983098FDA899C298B811F6300E
:07135F0099FDC299F59922E6
:00000001FF
